{
  "transactions": [
    {
      "hash": "0xf1ea351c89b694cf27135b1a05ed02cbf51f9a36377f043ca78f238262d4c7b3",
      "transactionType": "CREATE",
      "contractName": "MockERC20",
      "contractAddress": "0xd52c4a0f127df2ed1c07c3a83aba5018727abf6e",
      "function": null,
      "arguments": [
        "Wrapped KAIA",
        "WKAIA",
        "18"
      ],
      "transaction": {
        "from": "0xd1b55ecf88d327dcea52e2cfb8a262cefe0c3407",
        "gas": "0xb28a6",
        "value": "0x0",
        "input": "0x608060405234801562000010575f80fd5b5060405162000acf38038062000acf833981016040819052620000339162000131565b828260036200004383826200023c565b5060046200005282826200023c565b50506005805460ff191660ff93909316929092179091555062000304915050565b634e487b7160e01b5f52604160045260245ffd5b5f82601f83011262000097575f80fd5b81516001600160401b0380821115620000b457620000b462000073565b604051601f8301601f19908116603f01168101908282118183101715620000df57620000df62000073565b81604052838152602092508683858801011115620000fb575f80fd5b5f91505b838210156200011e5785820183015181830184015290820190620000ff565b5f93810190920192909252949350505050565b5f805f6060848603121562000144575f80fd5b83516001600160401b03808211156200015b575f80fd5b620001698783880162000087565b945060208601519150808211156200017f575f80fd5b506200018e8682870162000087565b925050604084015160ff81168114620001a5575f80fd5b809150509250925092565b600181811c90821680620001c557607f821691505b602082108103620001e457634e487b7160e01b5f52602260045260245ffd5b50919050565b601f82111562000237575f81815260208120601f850160051c81016020861015620002125750805b601f850160051c820191505b8181101562000233578281556001016200021e565b5050505b505050565b81516001600160401b0381111562000258576200025862000073565b6200027081620002698454620001b0565b84620001ea565b602080601f831160018114620002a6575f84156200028e5750858301515b5f19600386901b1c1916600185901b17855562000233565b5f85815260208120601f198616915b82811015620002d657888601518255948401946001909101908401620002b5565b5085821015620002f457878501515f19600388901b60f8161c191681555b5050505050600190811b01905550565b6107bd80620003125f395ff3fe608060405234801561000f575f80fd5b50600436106100a6575f3560e01c806340c10f191161006e57806340c10f191461012557806370a082311461013a57806395d89b41146101625780639dc29fac1461016a578063a9059cbb1461017d578063dd62ed3e14610190575f80fd5b806306fdde03146100aa578063095ea7b3146100c857806318160ddd146100eb57806323b872dd146100fd578063313ce56714610110575b5f80fd5b6100b26101c8565b6040516100bf9190610618565b60405180910390f35b6100db6100d636600461067e565b610258565b60405190151581526020016100bf565b6002545b6040519081526020016100bf565b6100db61010b3660046106a6565b610271565b60055460405160ff90911681526020016100bf565b61013861013336600461067e565b610294565b005b6100ef6101483660046106df565b6001600160a01b03165f9081526020819052604090205490565b6100b26102a2565b61013861017836600461067e565b6102b1565b6100db61018b36600461067e565b6102bb565b6100ef61019e3660046106ff565b6001600160a01b039182165f90815260016020908152604080832093909416825291909152205490565b6060600380546101d790610730565b80601f016020809104026020016040519081016040528092919081815260200182805461020390610730565b801561024e5780601f106102255761010080835404028352916020019161024e565b820191905f5260205f20905b81548152906001019060200180831161023157829003601f168201915b5050505050905090565b5f336102658185856102c8565b60019150505b92915050565b5f3361027e8582856102da565b61028985858561035b565b506001949350505050565b61029e82826103b8565b5050565b6060600480546101d790610730565b61029e82826103ec565b5f3361026581858561035b565b6102d58383836001610420565b505050565b6001600160a01b038381165f908152600160209081526040808320938616835292905220545f19811015610355578181101561034757604051637dc7a0d960e11b81526001600160a01b038416600482015260248101829052604481018390526064015b60405180910390fd5b61035584848484035f610420565b50505050565b6001600160a01b03831661038457604051634b637e8f60e11b81525f600482015260240161033e565b6001600160a01b0382166103ad5760405163ec442f0560e01b81525f600482015260240161033e565b6102d58383836104f2565b6001600160a01b0382166103e15760405163ec442f0560e01b81525f600482015260240161033e565b61029e5f83836104f2565b6001600160a01b03821661041557604051634b637e8f60e11b81525f600482015260240161033e565b61029e825f836104f2565b6001600160a01b0384166104495760405163e602df0560e01b81525f600482015260240161033e565b6001600160a01b03831661047257604051634a1406b160e11b81525f600482015260240161033e565b6001600160a01b038085165f908152600160209081526040808320938716835292905220829055801561035557826001600160a01b0316846001600160a01b03167f8c5be1e5ebec7d5bd14f71427d1e84f3dd0314c0f7b2291e5b200ac8c7c3b925846040516104e491815260200190565b60405180910390a350505050565b6001600160a01b03831661051c578060025f8282546105119190610768565b9091555061058c9050565b6001600160a01b0383165f908152602081905260409020548181101561056e5760405163391434e360e21b81526001600160a01b0385166004820152602481018290526044810183905260640161033e565b6001600160a01b0384165f9081526020819052604090209082900390555b6001600160a01b0382166105a8576002805482900390556105c6565b6001600160a01b0382165f9081526020819052604090208054820190555b816001600160a01b0316836001600160a01b03167fddf252ad1be2c89b69c2b068fc378daa952ba7f163c4a11628f55a4df523b3ef8360405161060b91815260200190565b60405180910390a3505050565b5f6020808352835180828501525f5b8181101561064357858101830151858201604001528201610627565b505f604082860101526040601f19601f8301168501019250505092915050565b80356001600160a01b0381168114610679575f80fd5b919050565b5f806040838503121561068f575f80fd5b61069883610663565b946020939093013593505050565b5f805f606084860312156106b8575f80fd5b6106c184610663565b92506106cf60208501610663565b9150604084013590509250925092565b5f602082840312156106ef575f80fd5b6106f882610663565b9392505050565b5f8060408385031215610710575f80fd5b61071983610663565b915061072760208401610663565b90509250929050565b600181811c9082168061074457607f821691505b60208210810361076257634e487b7160e01b5f52602260045260245ffd5b50919050565b8082018082111561026b57634e487b7160e01b5f52601160045260245ffdfea26469706673582212206e97e6737aa0b8151fbae1a8f23d41a06673b9a509fd9c9d86b6fe282cf8395964736f6c63430008140033000000000000000000000000000000000000000000000000000000000000006000000000000000000000000000000000000000000000000000000000000000a00000000000000000000000000000000000000000000000000000000000000012000000000000000000000000000000000000000000000000000000000000000c57726170706564204b41494100000000000000000000000000000000000000000000000000000000000000000000000000000000000000000000000000000005574b414941000000000000000000000000000000000000000000000000000000",
        "nonce": "0x6",
        "chainId": "0x3e9"
      },
      "additionalContracts": [],
      "isFixedGasLimit": false
    },
    {
      "hash": "0xfc617c8f0097d46738962197155e28203136b6c9951917978c3e26e2698ad015",
      "transactionType": "CREATE",
      "contractName": "MockERC20",
      "contractAddress": "0xd470e9a24f0393fd3508ecd96d5acbf501722c8b",
      "function": null,
      "arguments": [
        "Mock USDT",
        "mUSDT",
        "6"
      ],
      "transaction": {
        "from": "0xd1b55ecf88d327dcea52e2cfb8a262cefe0c3407",
        "gas": "0xb2877",
        "value": "0x0",
        "input": "0x608060405234801562000010575f80fd5b5060405162000acf38038062000acf833981016040819052620000339162000131565b828260036200004383826200023c565b5060046200005282826200023c565b50506005805460ff191660ff93909316929092179091555062000304915050565b634e487b7160e01b5f52604160045260245ffd5b5f82601f83011262000097575f80fd5b81516001600160401b0380821115620000b457620000b462000073565b604051601f8301601f19908116603f01168101908282118183101715620000df57620000df62000073565b81604052838152602092508683858801011115620000fb575f80fd5b5f91505b838210156200011e5785820183015181830184015290820190620000ff565b5f93810190920192909252949350505050565b5f805f6060848603121562000144575f80fd5b83516001600160401b03808211156200015b575f80fd5b620001698783880162000087565b945060208601519150808211156200017f575f80fd5b506200018e8682870162000087565b925050604084015160ff81168114620001a5575f80fd5b809150509250925092565b600181811c90821680620001c557607f821691505b602082108103620001e457634e487b7160e01b5f52602260045260245ffd5b50919050565b601f82111562000237575f81815260208120601f850160051c81016020861015620002125750805b601f850160051c820191505b8181101562000233578281556001016200021e565b5050505b505050565b81516001600160401b0381111562000258576200025862000073565b6200027081620002698454620001b0565b84620001ea565b602080601f831160018114620002a6575f84156200028e5750858301515b5f19600386901b1c1916600185901b17855562000233565b5f85815260208120601f198616915b82811015620002d657888601518255948401946001909101908401620002b5565b5085821015620002f457878501515f19600388901b60f8161c191681555b5050505050600190811b01905550565b6107bd80620003125f395ff3fe608060405234801561000f575f80fd5b50600436106100a6575f3560e01c806340c10f191161006e57806340c10f191461012557806370a082311461013a57806395d89b41146101625780639dc29fac1461016a578063a9059cbb1461017d578063dd62ed3e14610190575f80fd5b806306fdde03146100aa578063095ea7b3146100c857806318160ddd146100eb57806323b872dd146100fd578063313ce56714610110575b5f80fd5b6100b26101c8565b6040516100bf9190610618565b60405180910390f35b6100db6100d636600461067e565b610258565b60405190151581526020016100bf565b6002545b6040519081526020016100bf565b6100db61010b3660046106a6565b610271565b60055460405160ff90911681526020016100bf565b61013861013336600461067e565b610294565b005b6100ef6101483660046106df565b6001600160a01b03165f9081526020819052604090205490565b6100b26102a2565b61013861017836600461067e565b6102b1565b6100db61018b36600461067e565b6102bb565b6100ef61019e3660046106ff565b6001600160a01b039182165f90815260016020908152604080832093909416825291909152205490565b6060600380546101d790610730565b80601f016020809104026020016040519081016040528092919081815260200182805461020390610730565b801561024e5780601f106102255761010080835404028352916020019161024e565b820191905f5260205f20905b81548152906001019060200180831161023157829003601f168201915b5050505050905090565b5f336102658185856102c8565b60019150505b92915050565b5f3361027e8582856102da565b61028985858561035b565b506001949350505050565b61029e82826103b8565b5050565b6060600480546101d790610730565b61029e82826103ec565b5f3361026581858561035b565b6102d58383836001610420565b505050565b6001600160a01b038381165f908152600160209081526040808320938616835292905220545f19811015610355578181101561034757604051637dc7a0d960e11b81526001600160a01b038416600482015260248101829052604481018390526064015b60405180910390fd5b61035584848484035f610420565b50505050565b6001600160a01b03831661038457604051634b637e8f60e11b81525f600482015260240161033e565b6001600160a01b0382166103ad5760405163ec442f0560e01b81525f600482015260240161033e565b6102d58383836104f2565b6001600160a01b0382166103e15760405163ec442f0560e01b81525f600482015260240161033e565b61029e5f83836104f2565b6001600160a01b03821661041557604051634b637e8f60e11b81525f600482015260240161033e565b61029e825f836104f2565b6001600160a01b0384166104495760405163e602df0560e01b81525f600482015260240161033e565b6001600160a01b03831661047257604051634a1406b160e11b81525f600482015260240161033e565b6001600160a01b038085165f908152600160209081526040808320938716835292905220829055801561035557826001600160a01b0316846001600160a01b03167f8c5be1e5ebec7d5bd14f71427d1e84f3dd0314c0f7b2291e5b200ac8c7c3b925846040516104e491815260200190565b60405180910390a350505050565b6001600160a01b03831661051c578060025f8282546105119190610768565b9091555061058c9050565b6001600160a01b0383165f908152602081905260409020548181101561056e5760405163391434e360e21b81526001600160a01b0385166004820152602481018290526044810183905260640161033e565b6001600160a01b0384165f9081526020819052604090209082900390555b6001600160a01b0382166105a8576002805482900390556105c6565b6001600160a01b0382165f9081526020819052604090208054820190555b816001600160a01b0316836001600160a01b03167fddf252ad1be2c89b69c2b068fc378daa952ba7f163c4a11628f55a4df523b3ef8360405161060b91815260200190565b60405180910390a3505050565b5f6020808352835180828501525f5b8181101561064357858101830151858201604001528201610627565b505f604082860101526040601f19601f8301168501019250505092915050565b80356001600160a01b0381168114610679575f80fd5b919050565b5f806040838503121561068f575f80fd5b61069883610663565b946020939093013593505050565b5f805f606084860312156106b8575f80fd5b6106c184610663565b92506106cf60208501610663565b9150604084013590509250925092565b5f602082840312156106ef575f80fd5b6106f882610663565b9392505050565b5f8060408385031215610710575f80fd5b61071983610663565b915061072760208401610663565b90509250929050565b600181811c9082168061074457607f821691505b60208210810361076257634e487b7160e01b5f52602260045260245ffd5b50919050565b8082018082111561026b57634e487b7160e01b5f52601160045260245ffdfea26469706673582212206e97e6737aa0b8151fbae1a8f23d41a06673b9a509fd9c9d86b6fe282cf8395964736f6c63430008140033000000000000000000000000000000000000000000000000000000000000006000000000000000000000000000000000000000000000000000000000000000a0000000000000000000000000000000000000000000000000000000000000000600000000000000000000000000000000000000000000000000000000000000094d6f636b2055534454000000000000000000000000000000000000000000000000000000000000000000000000000000000000000000000000000000000000056d55534454000000000000000000000000000000000000000000000000000000",
        "nonce": "0x7",
        "chainId": "0x3e9"
      },
      "additionalContracts": [],
      "isFixedGasLimit": false
    },
    {
      "hash": "0xc313222edfdc80e2ec4dcb6508a68d54649f434afc7893afbdfd3113f4bb7d25",
      "transactionType": "CREATE",
      "contractName": "MockERC20",
      "contractAddress": "0x695a107f0643b7e321bb2fe8f53bc691e1aeb401",
      "function": null,
      "arguments": [
        "Mock USDC",
        "mUSDC",
        "6"
      ],
      "transaction": {
        "from": "0xd1b55ecf88d327dcea52e2cfb8a262cefe0c3407",
        "gas": "0xb2877",
        "value": "0x0",
        "input": "0x608060405234801562000010575f80fd5b5060405162000acf38038062000acf833981016040819052620000339162000131565b828260036200004383826200023c565b5060046200005282826200023c565b50506005805460ff191660ff93909316929092179091555062000304915050565b634e487b7160e01b5f52604160045260245ffd5b5f82601f83011262000097575f80fd5b81516001600160401b0380821115620000b457620000b462000073565b604051601f8301601f19908116603f01168101908282118183101715620000df57620000df62000073565b81604052838152602092508683858801011115620000fb575f80fd5b5f91505b838210156200011e5785820183015181830184015290820190620000ff565b5f93810190920192909252949350505050565b5f805f6060848603121562000144575f80fd5b83516001600160401b03808211156200015b575f80fd5b620001698783880162000087565b945060208601519150808211156200017f575f80fd5b506200018e8682870162000087565b925050604084015160ff81168114620001a5575f80fd5b809150509250925092565b600181811c90821680620001c557607f821691505b602082108103620001e457634e487b7160e01b5f52602260045260245ffd5b50919050565b601f82111562000237575f81815260208120601f850160051c81016020861015620002125750805b601f850160051c820191505b8181101562000233578281556001016200021e565b5050505b505050565b81516001600160401b0381111562000258576200025862000073565b6200027081620002698454620001b0565b84620001ea565b602080601f831160018114620002a6575f84156200028e5750858301515b5f19600386901b1c1916600185901b17855562000233565b5f85815260208120601f198616915b82811015620002d657888601518255948401946001909101908401620002b5565b5085821015620002f457878501515f19600388901b60f8161c191681555b5050505050600190811b01905550565b6107bd80620003125f395ff3fe608060405234801561000f575f80fd5b50600436106100a6575f3560e01c806340c10f191161006e57806340c10f191461012557806370a082311461013a57806395d89b41146101625780639dc29fac1461016a578063a9059cbb1461017d578063dd62ed3e14610190575f80fd5b806306fdde03146100aa578063095ea7b3146100c857806318160ddd146100eb57806323b872dd146100fd578063313ce56714610110575b5f80fd5b6100b26101c8565b6040516100bf9190610618565b60405180910390f35b6100db6100d636600461067e565b610258565b60405190151581526020016100bf565b6002545b6040519081526020016100bf565b6100db61010b3660046106a6565b610271565b60055460405160ff90911681526020016100bf565b61013861013336600461067e565b610294565b005b6100ef6101483660046106df565b6001600160a01b03165f9081526020819052604090205490565b6100b26102a2565b61013861017836600461067e565b6102b1565b6100db61018b36600461067e565b6102bb565b6100ef61019e3660046106ff565b6001600160a01b039182165f90815260016020908152604080832093909416825291909152205490565b6060600380546101d790610730565b80601f016020809104026020016040519081016040528092919081815260200182805461020390610730565b801561024e5780601f106102255761010080835404028352916020019161024e565b820191905f5260205f20905b81548152906001019060200180831161023157829003601f168201915b5050505050905090565b5f336102658185856102c8565b60019150505b92915050565b5f3361027e8582856102da565b61028985858561035b565b506001949350505050565b61029e82826103b8565b5050565b6060600480546101d790610730565b61029e82826103ec565b5f3361026581858561035b565b6102d58383836001610420565b505050565b6001600160a01b038381165f908152600160209081526040808320938616835292905220545f19811015610355578181101561034757604051637dc7a0d960e11b81526001600160a01b038416600482015260248101829052604481018390526064015b60405180910390fd5b61035584848484035f610420565b50505050565b6001600160a01b03831661038457604051634b637e8f60e11b81525f600482015260240161033e565b6001600160a01b0382166103ad5760405163ec442f0560e01b81525f600482015260240161033e565b6102d58383836104f2565b6001600160a01b0382166103e15760405163ec442f0560e01b81525f600482015260240161033e565b61029e5f83836104f2565b6001600160a01b03821661041557604051634b637e8f60e11b81525f600482015260240161033e565b61029e825f836104f2565b6001600160a01b0384166104495760405163e602df0560e01b81525f600482015260240161033e565b6001600160a01b03831661047257604051634a1406b160e11b81525f600482015260240161033e565b6001600160a01b038085165f908152600160209081526040808320938716835292905220829055801561035557826001600160a01b0316846001600160a01b03167f8c5be1e5ebec7d5bd14f71427d1e84f3dd0314c0f7b2291e5b200ac8c7c3b925846040516104e491815260200190565b60405180910390a350505050565b6001600160a01b03831661051c578060025f8282546105119190610768565b9091555061058c9050565b6001600160a01b0383165f908152602081905260409020548181101561056e5760405163391434e360e21b81526001600160a01b0385166004820152602481018290526044810183905260640161033e565b6001600160a01b0384165f9081526020819052604090209082900390555b6001600160a01b0382166105a8576002805482900390556105c6565b6001600160a01b0382165f9081526020819052604090208054820190555b816001600160a01b0316836001600160a01b03167fddf252ad1be2c89b69c2b068fc378daa952ba7f163c4a11628f55a4df523b3ef8360405161060b91815260200190565b60405180910390a3505050565b5f6020808352835180828501525f5b8181101561064357858101830151858201604001528201610627565b505f604082860101526040601f19601f8301168501019250505092915050565b80356001600160a01b0381168114610679575f80fd5b919050565b5f806040838503121561068f575f80fd5b61069883610663565b946020939093013593505050565b5f805f606084860312156106b8575f80fd5b6106c184610663565b92506106cf60208501610663565b9150604084013590509250925092565b5f602082840312156106ef575f80fd5b6106f882610663565b9392505050565b5f8060408385031215610710575f80fd5b61071983610663565b915061072760208401610663565b90509250929050565b600181811c9082168061074457607f821691505b60208210810361076257634e487b7160e01b5f52602260045260245ffd5b50919050565b8082018082111561026b57634e487b7160e01b5f52601160045260245ffdfea26469706673582212206e97e6737aa0b8151fbae1a8f23d41a06673b9a509fd9c9d86b6fe282cf8395964736f6c63430008140033000000000000000000000000000000000000000000000000000000000000006000000000000000000000000000000000000000000000000000000000000000a0000000000000000000000000000000000000000000000000000000000000000600000000000000000000000000000000000000000000000000000000000000094d6f636b2055534443000000000000000000000000000000000000000000000000000000000000000000000000000000000000000000000000000000000000056d55534443000000000000000000000000000000000000000000000000000000",
        "nonce": "0x8",
        "chainId": "0x3e9"
      },
      "additionalContracts": [],
      "isFixedGasLimit": false
    },
    {
      "hash": "0xbddf02f7f960ff4c21068d70a02182b8daa3a2e2bdb2ef4daf06088d3467404d",
      "transactionType": "CREATE",
      "contractName": "MockDexRouter",
      "contractAddress": "0x2f91c5f2ce14e0561f390a25c0a3d3f5dc4d8b05",
      "function": null,
      "arguments": [
        "0xD52C4a0F127dF2ed1C07c3a83abA5018727AbF6e"
      ],
      "transaction": {
        "from": "0xd1b55ecf88d327dcea52e2cfb8a262cefe0c3407",
        "gas": "0x1073a1",
        "value": "0x0",
        "input": "0x608060405234801561000f575f80fd5b50604051610e21380380610e2183398101604081905261002e91610052565b5f80546001600160a01b0319166001600160a01b039290921691909117905561007f565b5f60208284031215610062575f80fd5b81516001600160a01b0381168114610078575f80fd5b9392505050565b610d958061008c5f395ff3fe60806040526004361061004c575f3560e01c806318cbafe51461005757806338ed17391461008c5780637ff36ab5146100ab578063ad5c4648146100be578063d06ca61f146100f4575f80fd5b3661005357005b5f80fd5b348015610062575f80fd5b50610076610071366004610ab2565b610113565b6040516100839190610b1d565b60405180910390f35b348015610097575f80fd5b506100766100a6366004610ab2565b61044e565b6100766100b9366004610b60565b6106f4565b3480156100c9575f80fd5b505f546100dc906001600160a01b031681565b6040516001600160a01b039091168152602001610083565b3480156100ff575f80fd5b5061007661010e366004610bc1565b61098c565b60604282101561013e5760405162461bcd60e51b815260040161013590610c09565b60405180910390fd5b600284101561015f5760405162461bcd60e51b815260040161013590610c2a565b5f546001600160a01b03168585610177600182610c64565b81811061018657610186610c7d565b905060200201602081019061019b9190610c91565b6001600160a01b0316146101f15760405162461bcd60e51b815260206004820152601760248201527f4c61737420746f6b656e206d75737420626520574554480000000000000000006044820152606401610135565b5f85855f81811061020457610204610c7d565b90506020020160208101906102199190610c91565b6040516323b872dd60e01b8152336004820152306024820152604481018a90529091506001600160a01b038216906323b872dd906064016020604051808303815f875af115801561026c573d5f803e3d5ffd5b505050506040513d601f19601f820116820180604052508101906102909190610cb1565b505f606461029f8a6062610cd0565b6102a99190610ce7565b9050878110156102cb5760405162461bcd60e51b815260040161013590610d06565b5f856001600160a01b0316826040515f6040518083038185875af1925050503d805f8114610314576040519150601f19603f3d011682016040523d82523d5f602084013e610319565b606091505b50509050806103605760405162461bcd60e51b8152602060048201526013602482015272115512081d1c985b9cd9995c8819985a5b1959606a1b6044820152606401610135565b8667ffffffffffffffff81111561037957610379610d33565b6040519080825280602002602001820160405280156103a2578160200160208202803683370190505b50935089845f815181106103b8576103b8610c7d565b602090810291909101015281846103d060018a610c64565b815181106103e0576103e0610c7d565b60209081029190910101525f546040516001600160a01b039182169185169033907fcd3829a3813dc3cdd188fd3d01dcf3268c16be2fdd2dd21d0665418816e4606290610439908f908890918252602082015260400190565b60405180910390a45050509695505050505050565b6060428210156104705760405162461bcd60e51b815260040161013590610c09565b60028410156104915760405162461bcd60e51b815260040161013590610c2a565b5f85855f8181106104a4576104a4610c7d565b90506020020160208101906104b99190610c91565b90505f86866104c9600182610c64565b8181106104d8576104d8610c7d565b90506020020160208101906104ed9190610c91565b6040516323b872dd60e01b8152336004820152306024820152604481018b90529091506001600160a01b038316906323b872dd906064016020604051808303815f875af1158015610540573d5f803e3d5ffd5b505050506040513d601f19601f820116820180604052508101906105649190610cb1565b505f60646105738b6062610cd0565b61057d9190610ce7565b90508881101561059f5760405162461bcd60e51b815260040161013590610d06565b60405163a9059cbb60e01b81526001600160a01b0387811660048301526024820183905283169063a9059cbb906044016020604051808303815f875af11580156105eb573d5f803e3d5ffd5b505050506040513d601f19601f8201168201806040525081019061060f9190610cb1565b508667ffffffffffffffff81111561062957610629610d33565b604051908082528060200260200182016040528015610652578160200160208202803683370190505b50935089845f8151811061066857610668610c7d565b6020908102919091010152808461068060018a610c64565b8151811061069057610690610c7d565b602002602001018181525050816001600160a01b0316836001600160a01b0316336001600160a01b03167fcd3829a3813dc3cdd188fd3d01dcf3268c16be2fdd2dd21d0665418816e460628d85604051610439929190918252602082015260400190565b6060428210156107165760405162461bcd60e51b815260040161013590610c09565b60028410156107375760405162461bcd60e51b815260040161013590610c2a565b5f80546001600160a01b031690869086908161075557610755610c7d565b905060200201602081019061076a9190610c91565b6001600160a01b0316146107c05760405162461bcd60e51b815260206004820152601860248201527f466972737420746f6b656e206d757374206265205745544800000000000000006044820152606401610135565b5f85856107ce600182610c64565b8181106107dd576107dd610c7d565b90506020020160208101906107f29190610c91565b9050345f6064610803836062610cd0565b61080d9190610ce7565b90508881101561082f5760405162461bcd60e51b815260040161013590610d06565b60405163a9059cbb60e01b81526001600160a01b0387811660048301526024820183905284169063a9059cbb906044016020604051808303815f875af115801561087b573d5f803e3d5ffd5b505050506040513d601f19601f8201168201806040525081019061089f9190610cb1565b508667ffffffffffffffff8111156108b9576108b9610d33565b6040519080825280602002602001820160405280156108e2578160200160208202803683370190505b50935081845f815181106108f8576108f8610c7d565b6020908102919091010152808461091060018a610c64565b8151811061092057610920610c7d565b60209081029190910101525f546040516001600160a01b0380861692169033907fcd3829a3813dc3cdd188fd3d01dcf3268c16be2fdd2dd21d0665418816e46062906109789087908790918252602082015260400190565b60405180910390a450505095945050505050565b60608167ffffffffffffffff8111156109a7576109a7610d33565b6040519080825280602002602001820160405280156109d0578160200160208202803683370190505b50905083815f815181106109e6576109e6610c7d565b60209081029190910101528360015b83811015610a46576064610a0a836062610cd0565b610a149190610ce7565b915081838281518110610a2957610a29610c7d565b602090810291909101015280610a3e81610d47565b9150506109f5565b50509392505050565b5f8083601f840112610a5f575f80fd5b50813567ffffffffffffffff811115610a76575f80fd5b6020830191508360208260051b8501011115610a90575f80fd5b9250929050565b80356001600160a01b0381168114610aad575f80fd5b919050565b5f805f805f8060a08789031215610ac7575f80fd5b8635955060208701359450604087013567ffffffffffffffff811115610aeb575f80fd5b610af789828a01610a4f565b9095509350610b0a905060608801610a97565b9150608087013590509295509295509295565b602080825282518282018190525f9190848201906040850190845b81811015610b5457835183529284019291840191600101610b38565b50909695505050505050565b5f805f805f60808688031215610b74575f80fd5b85359450602086013567ffffffffffffffff811115610b91575f80fd5b610b9d88828901610a4f565b9095509350610bb0905060408701610a97565b949793965091946060013592915050565b5f805f60408486031215610bd3575f80fd5b83359250602084013567ffffffffffffffff811115610bf0575f80fd5b610bfc86828701610a4f565b9497909650939450505050565b602080825260079082015266115e1c1a5c995960ca1b604082015260600190565b6020808252600c908201526b092dcecc2d8d2c840e0c2e8d60a31b604082015260600190565b634e487b7160e01b5f52601160045260245ffd5b81810381811115610c7757610c77610c50565b92915050565b634e487b7160e01b5f52603260045260245ffd5b5f60208284031215610ca1575f80fd5b610caa82610a97565b9392505050565b5f60208284031215610cc1575f80fd5b81518015158114610caa575f80fd5b8082028115828204841417610c7757610c77610c50565b5f82610d0157634e487b7160e01b5f52601260045260245ffd5b500490565b602080825260139082015272125b9cdd59999a58da595b9d081bdd5d1c1d5d606a1b604082015260600190565b634e487b7160e01b5f52604160045260245ffd5b5f60018201610d5857610d58610c50565b506001019056fea26469706673582212201588837e12d302b0c9462bfbc8febf67dacae95950de9b460c847ba878258e6664736f6c63430008140033000000000000000000000000d52c4a0f127df2ed1c07c3a83aba5018727abf6e",
        "nonce": "0x9",
        "chainId": "0x3e9"
      },
      "additionalContracts": [],
      "isFixedGasLimit": false
    },
    {
      "hash": "0x920e5a33eb39c9ed0d1cf6452185f38cf3bc439845474e686f1273f97c8ae3e3",
      "transactionType": "CALL",
      "contractName": "MockERC20",
      "contractAddress": "0xd52c4a0f127df2ed1c07c3a83aba5018727abf6e",
      "function": "mint(address,uint256)",
      "arguments": [
        "0xD1B55ECf88d327dcea52e2CFB8A262CeFE0C3407",
        "1000000000000000000000000"
      ],
      "transaction": {
        "from": "0xd1b55ecf88d327dcea52e2cfb8a262cefe0c3407",
        "to": "0xd52c4a0f127df2ed1c07c3a83aba5018727abf6e",
        "gas": "0x17133",
        "value": "0x0",
        "input": "0x40c10f19000000000000000000000000d1b55ecf88d327dcea52e2cfb8a262cefe0c340700000000000000000000000000000000000000000000d3c21bcecceda1000000",
        "nonce": "0xa",
        "chainId": "0x3e9"
      },
      "additionalContracts": [],
      "isFixedGasLimit": false
    },
    {
      "hash": "0x8d42870e738c3777af910fb9954fde22858e811a7a0e665bee0bafe1fa018882",
      "transactionType": "CALL",
      "contractName": "MockERC20",
      "contractAddress": "0xd52c4a0f127df2ed1c07c3a83aba5018727abf6e",
      "function": "mint(address,uint256)",
      "arguments": [
        "0x2f91C5F2CE14e0561F390a25C0A3D3f5DC4D8b05",
        "1000000000000000000000000"
      ],
      "transaction": {
        "from": "0xd1b55ecf88d327dcea52e2cfb8a262cefe0c3407",
        "to": "0xd52c4a0f127df2ed1c07c3a83aba5018727abf6e",
        "gas": "0x114f0",
        "value": "0x0",
        "input": "0x40c10f190000000000000000000000002f91c5f2ce14e0561f390a25c0a3d3f5dc4d8b0500000000000000000000000000000000000000000000d3c21bcecceda1000000",
        "nonce": "0xb",
        "chainId": "0x3e9"
      },
      "additionalContracts": [],
      "isFixedGasLimit": false
    },
    {
      "hash": "0xf87e674cb29cf4410b0d7ab5a9500128fcbd185e221fd4e9af815df712396566",
      "transactionType": "CALL",
      "contractName": "MockERC20",
      "contractAddress": "0xd470e9a24f0393fd3508ecd96d5acbf501722c8b",
      "function": "mint(address,uint256)",
      "arguments": [
        "0xD1B55ECf88d327dcea52e2CFB8A262CeFE0C3407",
        "1000000000000"
      ],
      "transaction": {
        "from": "0xd1b55ecf88d327dcea52e2cfb8a262cefe0c3407",
        "to": "0xd470e9a24f0393fd3508ecd96d5acbf501722c8b",
        "gas": "0x17101",
        "value": "0x0",
        "input": "0x40c10f19000000000000000000000000d1b55ecf88d327dcea52e2cfb8a262cefe0c3407000000000000000000000000000000000000000000000000000000e8d4a51000",
        "nonce": "0xc",
        "chainId": "0x3e9"
      },
      "additionalContracts": [],
      "isFixedGasLimit": false
    },
    {
      "hash": "0xddf9703c9aac460f73ee9a60026517f15380acec2f57c4fd1c9a16831ec1fc8d",
      "transactionType": "CALL",
      "contractName": "MockERC20",
      "contractAddress": "0xd470e9a24f0393fd3508ecd96d5acbf501722c8b",
      "function": "mint(address,uint256)",
      "arguments": [
        "0x2f91C5F2CE14e0561F390a25C0A3D3f5DC4D8b05",
        "1000000000000"
      ],
      "transaction": {
        "from": "0xd1b55ecf88d327dcea52e2cfb8a262cefe0c3407",
        "to": "0xd470e9a24f0393fd3508ecd96d5acbf501722c8b",
        "gas": "0x114be",
        "value": "0x0",
        "input": "0x40c10f190000000000000000000000002f91c5f2ce14e0561f390a25c0a3d3f5dc4d8b05000000000000000000000000000000000000000000000000000000e8d4a51000",
        "nonce": "0xd",
        "chainId": "0x3e9"
      },
      "additionalContracts": [],
      "isFixedGasLimit": false
    },
    {
      "hash": "0x9f2c4d129c3dffc64f32ef8e983f97a540adcd3bd1465365b3608d0d2df3aaf8",
      "transactionType": "CALL",
      "contractName": "MockERC20",
      "contractAddress": "0x695a107f0643b7e321bb2fe8f53bc691e1aeb401",
      "function": "mint(address,uint256)",
      "arguments": [
        "0xD1B55ECf88d327dcea52e2CFB8A262CeFE0C3407",
        "1000000000000"
      ],
      "transaction": {
        "from": "0xd1b55ecf88d327dcea52e2cfb8a262cefe0c3407",
        "to": "0x695a107f0643b7e321bb2fe8f53bc691e1aeb401",
        "gas": "0x17101",
        "value": "0x0",
        "input": "0x40c10f19000000000000000000000000d1b55ecf88d327dcea52e2cfb8a262cefe0c3407000000000000000000000000000000000000000000000000000000e8d4a51000",
        "nonce": "0xe",
        "chainId": "0x3e9"
      },
      "additionalContracts": [],
      "isFixedGasLimit": false
    },
    {
      "hash": "0xe5f893a8609f7864771718050cc003a65fb0a5c6bae14220b23fcda7f35f60f5",
      "transactionType": "CALL",
      "contractName": "MockERC20",
      "contractAddress": "0x695a107f0643b7e321bb2fe8f53bc691e1aeb401",
      "function": "mint(address,uint256)",
      "arguments": [
        "0x2f91C5F2CE14e0561F390a25C0A3D3f5DC4D8b05",
        "1000000000000"
      ],
      "transaction": {
        "from": "0xd1b55ecf88d327dcea52e2cfb8a262cefe0c3407",
        "to": "0x695a107f0643b7e321bb2fe8f53bc691e1aeb401",
        "gas": "0x114be",
        "value": "0x0",
        "input": "0x40c10f190000000000000000000000002f91c5f2ce14e0561f390a25c0a3d3f5dc4d8b05000000000000000000000000000000000000000000000000000000e8d4a51000",
        "nonce": "0xf",
        "chainId": "0x3e9"
      },
      "additionalContracts": [],
      "isFixedGasLimit": false
    }
  ],
  "receipts": [
    {
      "status": "0x1",
      "cumulativeGasUsed": "0x8956c",
      "logs": [],
      "logsBloom": "0x00000000000000000000000000000000000000000000000000000000000000000000000000000000000000000000000000000000000000000000000000000000000000000000000000000000000000000000000000000000000000000000000000000000000000000000000000000000000000000000000000000000000000000000000000000000000000000000000000000000000000000000000000000000000000000000000000000000000000000000000000000000000000000000000000000000000000000000000000000000000000000000000000000000000000000000000000000000000000000000000000000000000000000000000000000000",
      "type": "0x2",
      "transactionHash": "0xf1ea351c89b694cf27135b1a05ed02cbf51f9a36377f043ca78f238262d4c7b3",
      "transactionIndex": "0x0",
      "blockHash": "0xb8c25cefb81eda0cf8da5dd6566bce355870a24bbb9012699f55362c00ded9d7",
      "blockNumber": "0xc52f404",
      "gasUsed": "0x8956c",
      "effectiveGasPrice": "0x5d518aa80",
      "from": "0xd1b55ecf88d327dcea52e2cfb8a262cefe0c3407",
      "to": null,
      "contractAddress": "0xd52c4a0f127df2ed1c07c3a83aba5018727abf6e"
    },
    {
      "status": "0x1",
      "cumulativeGasUsed": "0x112ab4",
      "logs": [],
      "logsBloom": "0x00000000000000000000000000000000000000000000000000000000000000000000000000000000000000000000000000000000000000000000000000000000000000000000000000000000000000000000000000000000000000000000000000000000000000000000000000000000000000000000000000000000000000000000000000000000000000000000000000000000000000000000000000000000000000000000000000000000000000000000000000000000000000000000000000000000000000000000000000000000000000000000000000000000000000000000000000000000000000000000000000000000000000000000000000000000",
      "type": "0x2",
      "transactionHash": "0xfc617c8f0097d46738962197155e28203136b6c9951917978c3e26e2698ad015",
      "transactionIndex": "0x1",
      "blockHash": "0xb8c25cefb81eda0cf8da5dd6566bce355870a24bbb9012699f55362c00ded9d7",
      "blockNumber": "0xc52f404",
      "gasUsed": "0x89548",
      "effectiveGasPrice": "0x5d518aa80",
      "from": "0xd1b55ecf88d327dcea52e2cfb8a262cefe0c3407",
      "to": null,
      "contractAddress": "0xd470e9a24f0393fd3508ecd96d5acbf501722c8b"
    },
    {
      "status": "0x1",
      "cumulativeGasUsed": "0x19bffc",
      "logs": [],
      "logsBloom": "0x00000000000000000000000000000000000000000000000000000000000000000000000000000000000000000000000000000000000000000000000000000000000000000000000000000000000000000000000000000000000000000000000000000000000000000000000000000000000000000000000000000000000000000000000000000000000000000000000000000000000000000000000000000000000000000000000000000000000000000000000000000000000000000000000000000000000000000000000000000000000000000000000000000000000000000000000000000000000000000000000000000000000000000000000000000000",
      "type": "0x2",
      "transactionHash": "0x8d42870e738c3777af910fb9954fde22858e811a7a0e665bee0bafe1fa018882",
      "transactionIndex": "0x2",
      "blockHash": "0xb8c25cefb81eda0cf8da5dd6566bce355870a24bbb9012699f55362c00ded9d7",
      "blockNumber": "0xc52f404",
      "gasUsed": "0x89548",
      "effectiveGasPrice": "0x5d518aa80",
      "from": "0xd1b55ecf88d327dcea52e2cfb8a262cefe0c3407",
      "to": null,
      "contractAddress": "0x695a107f0643b7e321bb2fe8f53bc691e1aeb401"
    },
    {
      "status": "0x1",
      "cumulativeGasUsed": "0x2667b3",
      "logs": [],
      "logsBloom": "0x00000000000000000000000000000000000000000000000000000000000000000000000000000000000000000000000000000000000000000000000000000000000000000000000000000000000000000000000000000000000000000000000000000000000000000000000000000000000000000000000000000000000000000000000000000000000000000000000000000000000000000000000000000000000000000000000000000000000000000000000000000000000000000000000000000000000000000000000000000000000000000000000000000000000000000000000000000000000000000000000000000000000000000000000000000000",
      "type": "0x2",
      "transactionHash": "0xf87e674cb29cf4410b0d7ab5a9500128fcbd185e221fd4e9af815df712396566",
      "transactionIndex": "0x3",
      "blockHash": "0xb8c25cefb81eda0cf8da5dd6566bce355870a24bbb9012699f55362c00ded9d7",
      "blockNumber": "0xc52f404",
      "gasUsed": "0xca7b7",
      "effectiveGasPrice": "0x5d518aa80",
      "from": "0xd1b55ecf88d327dcea52e2cfb8a262cefe0c3407",
      "to": null,
      "contractAddress": "0x2f91c5f2ce14e0561f390a25c0a3d3f5dc4d8b05"
    },
    {
      "status": "0x1",
      "cumulativeGasUsed": "0x2772ff",
      "logs": [
        {
          "address": "0xd52c4a0f127df2ed1c07c3a83aba5018727abf6e",
          "topics": [
            "0xddf252ad1be2c89b69c2b068fc378daa952ba7f163c4a11628f55a4df523b3ef",
            "0x0000000000000000000000000000000000000000000000000000000000000000",
            "0x000000000000000000000000d1b55ecf88d327dcea52e2cfb8a262cefe0c3407"
          ],
          "data": "0x00000000000000000000000000000000000000000000d3c21bcecceda1000000",
          "blockHash": "0xb8c25cefb81eda0cf8da5dd6566bce355870a24bbb9012699f55362c00ded9d7",
          "blockNumber": "0xc52f404",
          "transactionHash": "0xc313222edfdc80e2ec4dcb6508a68d54649f434afc7893afbdfd3113f4bb7d25",
          "transactionIndex": "0x4",
          "logIndex": "0x0",
          "removed": false
        }
      ],
      "logsBloom": "0x00000000000020000000000000000000000000000000000000000000000000000000000000000000000000000000000000000000000000000000000000000000000000000000000000000008000000000000000000000000000000000000000000000000020000000000000000000800000000000000000008000010000000000000000000000000000020000000000000000000000000000000000000000000000000000000000000000000000000000000000002000000000000000000000000000002000000000080000000200000000000000000000000000000000020000000000000000000000000000000000000000000000000000000000000000000",
      "type": "0x2",
      "transactionHash": "0xc313222edfdc80e2ec4dcb6508a68d54649f434afc7893afbdfd3113f4bb7d25",
      "transactionIndex": "0x4",
      "blockHash": "0xb8c25cefb81eda0cf8da5dd6566bce355870a24bbb9012699f55362c00ded9d7",
      "blockNumber": "0xc52f404",
      "gasUsed": "0x10b4c",
      "effectiveGasPrice": "0x5d518aa80",
      "from": "0xd1b55ecf88d327dcea52e2cfb8a262cefe0c3407",
      "to": "0xd52c4a0f127df2ed1c07c3a83aba5018727abf6e",
      "contractAddress": null
    },
    {
      "status": "0x1",
      "cumulativeGasUsed": "0x283b7f",
      "logs": [
        {
          "address": "0xd52c4a0f127df2ed1c07c3a83aba5018727abf6e",
          "topics": [
            "0xddf252ad1be2c89b69c2b068fc378daa952ba7f163c4a11628f55a4df523b3ef",
            "0x0000000000000000000000000000000000000000000000000000000000000000",
            "0x0000000000000000000000002f91c5f2ce14e0561f390a25c0a3d3f5dc4d8b05"
          ],
          "data": "0x00000000000000000000000000000000000000000000d3c21bcecceda1000000",
          "blockHash": "0xb8c25cefb81eda0cf8da5dd6566bce355870a24bbb9012699f55362c00ded9d7",
          "blockNumber": "0xc52f404",
          "transactionHash": "0xddf9703c9aac460f73ee9a60026517f15380acec2f57c4fd1c9a16831ec1fc8d",
          "transactionIndex": "0x5",
          "logIndex": "0x1",
          "removed": false
        }
      ],
      "logsBloom": "0x00000000000000000000000000000000000000000000000080000000000000000000000000000000000000000000000000000000000000000000000000000000000000000000000000000008000000000000000000000000000000000000000000000000020000000000000000000800000000000000000008000010000000000000000000000000000000000000000000000000000000000000000000000000000000000000000000000000000000000000000002000000000000000000000000000002000000000080000000000000000000000000000000000000000020000000000000000000000000000000000000100000000000000000000020000000",
      "type": "0x2",
      "transactionHash": "0xddf9703c9aac460f73ee9a60026517f15380acec2f57c4fd1c9a16831ec1fc8d",
      "transactionIndex": "0x5",
      "blockHash": "0xb8c25cefb81eda0cf8da5dd6566bce355870a24bbb9012699f55362c00ded9d7",
      "blockNumber": "0xc52f404",
      "gasUsed": "0xc880",
      "effectiveGasPrice": "0x5d518aa80",
      "from": "0xd1b55ecf88d327dcea52e2cfb8a262cefe0c3407",
      "to": "0xd52c4a0f127df2ed1c07c3a83aba5018727abf6e",
      "contractAddress": null
    },
    {
      "status": "0x1",
      "cumulativeGasUsed": "0x2946a7",
      "logs": [
        {
          "address": "0xd470e9a24f0393fd3508ecd96d5acbf501722c8b",
          "topics": [
            "0xddf252ad1be2c89b69c2b068fc378daa952ba7f163c4a11628f55a4df523b3ef",
            "0x0000000000000000000000000000000000000000000000000000000000000000",
            "0x000000000000000000000000d1b55ecf88d327dcea52e2cfb8a262cefe0c3407"
          ],
          "data": "0x000000000000000000000000000000000000000000000000000000e8d4a51000",
          "blockHash": "0xb8c25cefb81eda0cf8da5dd6566bce355870a24bbb9012699f55362c00ded9d7",
          "blockNumber": "0xc52f404",
          "transactionHash": "0x9f2c4d129c3dffc64f32ef8e983f97a540adcd3bd1465365b3608d0d2df3aaf8",
          "transactionIndex": "0x6",
          "logIndex": "0x2",
          "removed": false
        }
      ],
      "logsBloom": "0x00000000000020000000000000000000000000000000000000000000000000000000000000000000000000000000000000000100000000000000000000000000000000000000000000000008000000000000000000000000000000000000000000000000020000000000000000000800000000000000000000000010000000000000000000000000000020000000000000000000000000000000000000000000000000000000000000000000000000000000000000800000000000000000000000000002000000000000000000200000000000000000000000000000000020000000000000000000000000000000000000000800000000000000000000000000",
      "type": "0x2",
      "transactionHash": "0x9f2c4d129c3dffc64f32ef8e983f97a540adcd3bd1465365b3608d0d2df3aaf8",
      "transactionIndex": "0x6",
      "blockHash": "0xb8c25cefb81eda0cf8da5dd6566bce355870a24bbb9012699f55362c00ded9d7",
      "blockNumber": "0xc52f404",
      "gasUsed": "0x10b28",
      "effectiveGasPrice": "0x5d518aa80",
      "from": "0xd1b55ecf88d327dcea52e2cfb8a262cefe0c3407",
      "to": "0xd470e9a24f0393fd3508ecd96d5acbf501722c8b",
      "contractAddress": null
    },
    {
      "status": "0x1",
      "cumulativeGasUsed": "0x2a0f03",
      "logs": [
        {
          "address": "0xd470e9a24f0393fd3508ecd96d5acbf501722c8b",
          "topics": [
            "0xddf252ad1be2c89b69c2b068fc378daa952ba7f163c4a11628f55a4df523b3ef",
            "0x0000000000000000000000000000000000000000000000000000000000000000",
            "0x0000000000000000000000002f91c5f2ce14e0561f390a25c0a3d3f5dc4d8b05"
          ],
          "data": "0x000000000000000000000000000000000000000000000000000000e8d4a51000",
          "blockHash": "0xb8c25cefb81eda0cf8da5dd6566bce355870a24bbb9012699f55362c00ded9d7",
          "blockNumber": "0xc52f404",
          "transactionHash": "0x920e5a33eb39c9ed0d1cf6452185f38cf3bc439845474e686f1273f97c8ae3e3",
          "transactionIndex": "0x7",
          "logIndex": "0x3",
          "removed": false
        }
      ],
      "logsBloom": "0x00000000000000000000000000000000000000000000000080000000000000000000000000000000000000000000000000000100000000000000000000000000000000000000000000000008000000000000000000000000000000000000000000000000020000000000000000000800000000000000000000000010000000000000000000000000000000000000000000000000000000000000000000000000000000000000000000000000000000000000000000800000000000000000000000000002000000000000000000000000000000000000000000000000000020000000000000000000000000000000000000100800000000000000000020000000",
      "type": "0x2",
      "transactionHash": "0x920e5a33eb39c9ed0d1cf6452185f38cf3bc439845474e686f1273f97c8ae3e3",
      "transactionIndex": "0x7",
      "blockHash": "0xb8c25cefb81eda0cf8da5dd6566bce355870a24bbb9012699f55362c00ded9d7",
      "blockNumber": "0xc52f404",
      "gasUsed": "0xc85c",
      "effectiveGasPrice": "0x5d518aa80",
      "from": "0xd1b55ecf88d327dcea52e2cfb8a262cefe0c3407",
      "to": "0xd470e9a24f0393fd3508ecd96d5acbf501722c8b",
      "contractAddress": null
    },
    {
      "status": "0x1",
      "cumulativeGasUsed": "0x2b1a2b",
      "logs": [
        {
          "address": "0x695a107f0643b7e321bb2fe8f53bc691e1aeb401",
          "topics": [
            "0xddf252ad1be2c89b69c2b068fc378daa952ba7f163c4a11628f55a4df523b3ef",
            "0x0000000000000000000000000000000000000000000000000000000000000000",
            "0x000000000000000000000000d1b55ecf88d327dcea52e2cfb8a262cefe0c3407"
          ],
          "data": "0x000000000000000000000000000000000000000000000000000000e8d4a51000",
          "blockHash": "0xb8c25cefb81eda0cf8da5dd6566bce355870a24bbb9012699f55362c00ded9d7",
          "blockNumber": "0xc52f404",
          "transactionHash": "0xe5f893a8609f7864771718050cc003a65fb0a5c6bae14220b23fcda7f35f60f5",
          "transactionIndex": "0x8",
          "logIndex": "0x4",
          "removed": false
        }
      ],
      "logsBloom": "0x00000000000020000000000000000000000000000000000000000000000000000000000000000000000000000000000000000000000000000000000000000000000000000000000000000008000000000000000000000000000000000000000000000000020000000000000000000800000000000000000000000010000000000000000000000000000020000000000000000000000000000000000000000000000000000000000000008000000000000000000000000000100000000020000000000002000000000000000000200000000000000000000000000000000020000000000000000000000000000000000000000000000000000000000000000000",
      "type": "0x2",
      "transactionHash": "0xe5f893a8609f7864771718050cc003a65fb0a5c6bae14220b23fcda7f35f60f5",
      "transactionIndex": "0x8",
      "blockHash": "0xb8c25cefb81eda0cf8da5dd6566bce355870a24bbb9012699f55362c00ded9d7",
      "blockNumber": "0xc52f404",
      "gasUsed": "0x10b28",
      "effectiveGasPrice": "0x5d518aa80",
      "from": "0xd1b55ecf88d327dcea52e2cfb8a262cefe0c3407",
      "to": "0x695a107f0643b7e321bb2fe8f53bc691e1aeb401",
      "contractAddress": null
    },
    {
      "status": "0x1",
      "cumulativeGasUsed": "0x2be287",
      "logs": [
        {
          "address": "0x695a107f0643b7e321bb2fe8f53bc691e1aeb401",
          "topics": [
            "0xddf252ad1be2c89b69c2b068fc378daa952ba7f163c4a11628f55a4df523b3ef",
            "0x0000000000000000000000000000000000000000000000000000000000000000",
            "0x0000000000000000000000002f91c5f2ce14e0561f390a25c0a3d3f5dc4d8b05"
          ],
          "data": "0x000000000000000000000000000000000000000000000000000000e8d4a51000",
          "blockHash": "0xb8c25cefb81eda0cf8da5dd6566bce355870a24bbb9012699f55362c00ded9d7",
          "blockNumber": "0xc52f404",
          "transactionHash": "0xbddf02f7f960ff4c21068d70a02182b8daa3a2e2bdb2ef4daf06088d3467404d",
          "transactionIndex": "0x9",
          "logIndex": "0x5",
          "removed": false
        }
      ],
      "logsBloom": "0x00000000000000000000000000000000000000000000000080000000000000000000000000000000000000000000000000000000000000000000000000000000000000000000000000000008000000000000000000000000000000000000000000000000020000000000000000000800000000000000000000000010000000000000000000000000000000000000000000000000000000000000000000000000000000000000000000008000000000000000000000000000100000000020000000000002000000000000000000000000000000000000000000000000000020000000000000000000000000000000000000100000000000000000000020000000",
      "type": "0x2",
      "transactionHash": "0xbddf02f7f960ff4c21068d70a02182b8daa3a2e2bdb2ef4daf06088d3467404d",
      "transactionIndex": "0x9",
      "blockHash": "0xb8c25cefb81eda0cf8da5dd6566bce355870a24bbb9012699f55362c00ded9d7",
      "blockNumber": "0xc52f404",
      "gasUsed": "0xc85c",
      "effectiveGasPrice": "0x5d518aa80",
      "from": "0xd1b55ecf88d327dcea52e2cfb8a262cefe0c3407",
      "to": "0x695a107f0643b7e321bb2fe8f53bc691e1aeb401",
      "contractAddress": null
    }
  ],
  "libraries": [],
  "pending": [],
  "returns": {},
  "timestamp": 1768402464197,
  "chain": 1001,
  "commit": "c2a002b"
}